:100000000C9463000C948B000C948B000C948B006C
:100010000C948B000C948B000C948B000C94480374
:100020000C948B000C948B000C948B000C948B0024
:100030000C948B000C948B000C948B000C948B0014
:100040000C94FE020C948B000C94CA030C94A40331
:100050000C948B000C948B000C948B000C948B00F4
:100060000C948B000C948B000000000023002600F1
:1000700029000200000000240027002A00000000E0
:1000800000250028002B00040404040404040402D6
:100090000202020202030303030303010204081025
:1000A00020408001020408102001020408102000F2
:1000B0000000080002010000030407000000000027
:1000C00000000000F70611241FBECFEFD8E0DEBF0E
:1000D000CDBF11E0A0E0B1E0EAE3F2E102C005909B
:1000E0000D92A033B107D9F721E0A0E3B1E001C040
:1000F0001D92AB3EB207E1F710E0C3E6D0E004C0CA
:100100002197FE010E941009C236D107C9F70E944B
:1001100041040C941B090C94000090E0FC01E15593
:10012000FF4F3491FC01E556FF4F2491FC01E95744
:10013000FF4FE491EE2309F43BC0332339F1333010
:1001400091F038F43130A9F0323001F584B58F7D6B
:1001500012C0373091F03830A1F03430B9F48091CA
:1001600080008F7D03C0809180008F778093800016
:100170000DC084B58F7784BD09C08091B0008F77A2
:1001800003C08091B0008F7D8093B000F0E0EE0F4F
:10019000FF1FE358FF4FA591B4918FB7F894EC91EE
:1001A000611103C020952E2301C02E2B2C938FBFED
:1001B0000895CF93DF9390E0FC01E556FF4F249123
:1001C000FC01E957FF4F8491882361F190E0880F8B
:1001D000991FFC01ED58FF4FC591D491FC01E358E4
:1001E000FF4FA591B491611109C09FB7F894888120
:1001F000209582238883EC912E230BC0623061F41A
:100200009FB7F8943881822F809583238883EC915F
:100210002E2B2C939FBF06C08FB7F894E8812E2B0E
:1002200028838FBFDF91CF9108953FB7F8948091D5
:100230004A0190914B01A0914C01B0914D0126B51E
:10024000A89B05C02F3F19F00196A11DB11D3FBF0E
:10025000BA2FA92F982F8827820F911DA11DB11D9C
:10026000BC01CD0142E0660F771F881F991F4A9598
:10027000D1F708958F929F92AF92BF92CF92DF9263
:10028000EF92FF926B017C010E9415014B015C0112
:10029000C114D104E104F104F1F00E941501DC0164
:1002A000CB0188199909AA09BB09883E9340A10589
:1002B000B10570F321E0C21AD108E108F10888EE17
:1002C000880E83E0981EA11CB11CC114D104E10466
:1002D000F10419F7DDCFFF90EF90DF90CF90BF9042
:1002E000AF909F908F90089590910001981324C033
:1002F000E2E7F0E0E4919FEF90930001E130B9F084
:1003000098F0E230C9F4909170009D7F9093700056
:1003100091E09093B0009091B100987F9460909399
:10032000B1001092B30008C010926E0005C0909109
:100330006F009D7F90936F0060E00C948D00CF92D2
:10034000DF92EF92FF920F931F93CF93DF936C0195
:100350007A018B01C0E0D0E0CE15DF0589F0D8012D
:100360006D918D01D601ED91FC910190F081E02D10
:10037000C6010995892B11F47E0102C02196ECCFAC
:10038000C701DF91CF911F910F91FF90EF90DF9008
:10039000CF900895089580E090E00895FC01538D7A
:1003A000448D252F30E0842F90E0821B930B54174F
:1003B00010F0CF96089501970895FC01918D828DDC
:1003C000981761F0828DDF01A80FB11D5D968C91A9
:1003D000928D9F5F9F73928F90E008958FEF9FEFB4
:1003E0000895FC01918D828D981731F0828DE80F70
:1003F000F11D858D90E008958FEF9FEF0895FC012A
:10040000918D228D892F90E0805C9F4F821B9109F6
:100410008F73992708958EE491E00E94FF0121E0F7
:10042000892B09F420E0822F0895FC01848DDF01DF
:10043000A80FB11DA35ABF4F2C91848D90E0019657
:100440008F739927848FA689B7892C93A089B18946
:100450008C9180648C93938D848D981306C0028850
:10046000F389E02D80818F7D80830895EF92FF9244
:100470000F931F93CF93DF93EC0181E0888F9B8DC7
:100480008C8D981305C0E889F989808185FD24C089
:10049000F62E0B8D10E00F5F1F4F0F731127E02E0C
:1004A0008C8DE8120CC00FB607FCFACFE889F989E9
:1004B000808185FFF5CFCE010E941502F1CF8B8D93
:1004C000FE01E80FF11DE35AFF4FF0820B8FEA891E
:1004D000FB898081806207C0EE89FF896083E8899B
:1004E000F98980818064808381E090E0DF91CF9101
:1004F0001F910F91FF90EF900895CF93DF93EC0140
:10050000888D8823C9F0EA89FB89808185FD05C033
:10051000A889B9898C9186FD0FC00FB607FCF5CF6D
:10052000808185FFF2CFA889B9898C9185FFEDCFB5
:10053000CE010E941502E7CFDF91CF91089580E0B0
:1005400090E0892B29F00E940B0281110C9400008D
:100550000895009769F0FC0101900020E9F73197B8
:10056000AF01481B590BBC018EE491E00C949F0134
:1005700080E090E008958F929F92AF92BF920F9388
:100580001F93CF93DF93CDB7DEB7A1970FB6F89443
:10059000DEBF0FBECDBF19A2423008F44AE08E0183
:1005A0000F5D1F4F842E912CA12CB12CA50194011D
:1005B0000E94EE08E62FB901CA0101501109EA3084
:1005C00014F4E05D01C0E95CD801EC93232B242BEB
:1005D000252B61F7C8010E94A902A1960FB6F894D5
:1005E000DEBF0FBECDBFDF91CF911F910F91BF90A6
:1005F000AF909F908F9008950E9416091F920F92BE
:100600000FB60F9211242F933F938F939F93AF9325
:10061000BF938091460190914701A0914801B0910C
:1006200049013091450123E0230F2D3720F4019635
:10063000A11DB11D05C026E8230F0296A11DB11D05
:10064000209345018093460190934701A093480170
:10065000B093490180914A0190914B01A0914C01C6
:10066000B0914D010196A11DB11D80934A01909357
:100670004B01A0934C01B0934D01BF91AF919F915D
:100680008F913F912F910F900FBE0F901F90189553
:100690001F920F920FB60F9211242F933F934F93F7
:1006A0005F936F937F938F939F93AF93BF93EF93DA
:1006B000FF938091410190914201A0914301B0913B
:1006C0004401892B8A2B8B2B51F180914001E091C1
:1006D0003E01F0913F019081892780838091410103
:1006E00090914201A0914301B0914401181619065E
:1006F0001A061B06C4F48091410190914201A09119
:100700004301B09144010197A109B10980934101CE
:1007100090934201A0934301B093440104C080919F
:1007200000010E947401FF91EF91BF91AF919F91E1
:100730008F917F916F915F914F913F912F910F908A
:100740000FBE0F901F9018951F920F920FB60F9229
:1007500011242F933F934F935F936F937F938F93C6
:100760009F93AF93BF93EF93FF938EE491E00E942A
:100770001502FF91EF91BF91AF919F918F917F9162
:100780006F915F914F913F912F910F900FBE0F90FE
:100790001F9018951F920F920FB60F9211242F934E
:1007A0008F939F93EF93FF93E0915E01F0915F0130
:1007B0008081E0916401F091650182FD12C0908119
:1007C000809167018F5F8F7320916801821751F0CC
:1007D000E0916701F0E0E25BFE4F958F8093670147
:1007E00001C08081FF91EF919F918F912F910F9088
:1007F0000FBE0F901F901895CF92DF92EF92FF924D
:100800000F931F93E82FF92F05C0015011092109FB
:10081000310961F1908196239417B9F305C0015015
:1008200011092109310911F1908196239413F7CF11
:10083000C12CD12CE12CF12C0AC08FEFC81AD80A98
:10084000E80AF80A0C151D052E053F0579F0808190
:100850008623841791F36C2D7D2D8E2D9F2D1F9156
:100860000F91FF90EF90DF90CF90089560E070E0DF
:1008700080E090E01F910F91FF90EF90DF90CF907C
:100880000895789484B5826084BD84B5816084BD08
:1008900085B5826085BD85B5816085BD80916E001E
:1008A000816080936E00109281008091810082604F
:1008B000809381008091810081608093810080918C
:1008C00080008160809380008091B100846080937B
:1008D000B1008091B00081608093B00080917A0077
:1008E000846080937A0080917A00826080937A009D
:1008F00080917A00816080937A0080917A0080688C
:1009000080937A001092C10061E08DE00E94D900CE
:1009100061E08EE00E94D90061E080E10E94D90090
:1009200060E08FE00E94D90061E08DE00E948D00C0
:1009300068EE73E080E090E00E943A0160E08DE0B4
:100940000E948D00809100018E3021F08F3F09F0D0
:10095000B9C004C0E2E7F0E0C49174C08EE08093B7
:100960000001E2E7F0E0E491EF3F09F4ABC0E130D1
:1009700011F1E23009F442C0E11163C014BC15BCAE
:1009800084B5826084BD85B5816085BDE5E9F0E010
:10099000E491F0E0EE0FFF1FE358FF4F8591949133
:1009A0009093350180933401E9EAF0E0E491E0931B
:1009B0003301C0E049C01092800010928100809104
:1009C00081008860809381008091810081608093A4
:1009D0008100E5E9F0E0E491F0E0EE0FFF1FE3585D
:1009E000FF4F859194919093320180933101E9EA10
:1009F000F0E0E491E0933001C1E026C01092B00035
:100A00001092B1008091B00082608093B00080911C
:100A1000B10081608093B100E5E9F0E0E491F0E09D
:100A2000EE0FFF1FE358FF4F8591949190933F0184
:100A300080933E01E9EAF0E0E491E0934001C2E0F6
:100A400003C0CE2FC7FD3EC061E08EE00E94D900FA
:100A5000CC2309F4AEC1C23009F4C2C1C130E9F4FB
:100A600080918100887F83608093810083EC99E08E
:100A700090938900809388008FEF9FEFDC01809333
:100A8000360190933701A0933801B09339018091DA
:100A90006F00826080936F0015C083ECC23091F4C8
:100AA0008093B3008FEF9FEFDC018093410190931F
:100AB0004201A0934301B093440180917000826091
:100AC0008093700064EF70E080E090E00E943A0153
:100AD0008EE00E947401E0915E01F0915F0182E07E
:100AE0008083E0915A01F0915B011082E0915C01FA
:100AF000F0915D0180E1808310926601E0916201D6
:100B0000F091630186E08083E0916001F0916101E2
:100B1000808180618083E0916001F091610180813A
:100B200088608083E0916001F0916101808180683C
:100B30008083E0916001F091610180818F7D8083ED
:100B4000C3E2D0E096E9292E90E0392E8EE491E0C0
:100B50000E94FF01181619060CF028C160E080E120
:100B60000E948D00CE010197F1F761E080E10E94C3
:100B70008D00CE010197F1F760E080E10E948D00C9
:100B8000EAEAF0E06491F1018491E82FF0E0EE0FE1
:100B9000FF1FE859FF4F8591949100E315E720E08E
:100BA00030E0462F0E94FC03611571058105910517
:100BB00049F0DC01CB010196A11DB11DBC01CD01A5
:100BC0009F7003C060E070E0CB010E94C5076B011D
:100BD0007C0120E030E0A9010E949107882359F0B0
:100BE00026E933E44BE85CE3C701B6010E947C08C8
:100BF0006B017C0103C0C12CD12C760183E191E013
:100C00000E94A902A7019601C701B6010E94E90846
:100C1000882319F08EE191E01AC046015701E8944B
:100C2000B7F82FEF3FEF4FE75FE7C501B4010E9430
:100C3000E90881110FC02FEF3FEF4FE75FE7C501D4
:100C4000B4010E94910718162CF482E291E00E94F0
:100C5000A90282C02FEF3FEF4FE75FE4C701B60163
:100C60000E94770818161CF486E291E0F0CF2FEF6F
:100C70003FEF4FE75FECC701B6010E94910787FD88
:100C8000F3CF20E030E0A901C701B6010E9491072F
:100C900087FF0FC0E0914E01F0914F010190F0816C
:100CA000E02D6DE28EE491E00995C701B601905800
:100CB00002C0C701B6012AE037ED43EA5BE30E94B8
:100CC00025072B013C010E9496074B015C010E9405
:100CD000C5079B01AC01C301B2010E9424072B018F
:100CE0003C014AE0C501B4010E94BB02E0914E0103
:100CF000F0914F010190F081E02D6EE28EE491E0E1
:100D0000099520E030E040E251E4C301B2010E94C5
:100D10007C084B015C010E9496072B01612C712C11
:100D20004AE0C301B2010E94BB02C301B2010E94AA
:100D3000C5079B01AC01C501B4010E94240720E056
:100D400030E040E251E40E947C080E94960780E077
:100D500090E04AE00E94BB028AE291E00E94A90270
:100D60008DE291E00E94A90220E030E0A901C701D4
:100D7000B6010E9491078823C9F020E030E0A90164
:100D8000C701B6010E947708181664F420E030E02D
:100D900040EA50E4C701B6010E949107181614F00A
:100DA00061E001C060E08DE00E948D000E949F0222
:100DB000CDCE85B5887F856085BD8BE987BD8FEFFA
:100DC0009FEFDC0180933A0190933B01A0933C019B
:100DD000B0933D0180916E00826080936E0072CE70
:100DE0008091B10087608093B1008BE959CEEEE429
:100DF000F1E01382128288EE93E0A0E0B0E08483F9
:100E00009583A683B78385E091E09183808385EC09
:100E100090E09587848784EC90E09787868780ECC4
:100E200090E0918B808B81EC90E0938B828B82ECB5
:100E300090E0958B848B86EC90E0978B868B118E5F
:100E4000128E138E148E08955058BB27AA270E9425
:100E50003C070C943D080E942F0838F00E94360889
:100E600020F039F49F3F19F426F40C942C080EF46A
:100E7000E095E7FB0C942608E92F0E944E0858F3F2
:100E8000BA17620773078407950720F079F4A6F56F
:100E90000C9470080EF4E0950B2EBA2FA02D0B01C8
:100EA000B90190010C01CA01A0011124FF27591BAF
:100EB00099F0593F50F4503E68F11A16F040A22FB5
:100EC000232F342F4427585FF3CF46953795279526
:100ED000A795F0405395C9F77EF41F16BA0B620B25
:100EE000730B840BBAF09150A1F0FF0FBB1F661F6C
:100EF000771F881FC2F70EC0BA0F621F731F841FAF
:100F000048F4879577956795B795F7959E3F08F0D4
:100F1000B0CF9395880F08F09927EE0F9795879596
:100F200008950E94020808F481E008950E9456087E
:100F300088F09F5798F0B92F9927B751B0F0E1F09A
:100F4000660F771F881F991F1AF0BA95C9F714C04A
:100F5000B13091F00E947008B1E008950C947008CF
:100F6000672F782F8827B85F39F0B93FCCF3869583
:100F700077956795B395D9F73EF4909580957095E0
:100F800061957F4F8F4F9F4F0895E89409C097FB5D
:100F90003EF490958095709561957F4F8F4F9F4F50
:100FA0009923A9F0F92F96E9BB279395F695879594
:100FB00077956795B795F111F8CFFAF4BB0F11F457
:100FC00060FF1BC06F5F7F4F8F4F9F4F16C08823FE
:100FD00011F096E911C0772321F09EE8872F762F34
:100FE00005C0662371F096E8862F70E060E02AF075
:100FF0009A95660F771F881FDAF7880F9695879561
:1010000097F90895990F0008550FAA0BE0E8FEEF35
:1010100016161706E807F907C0F012161306E407BC
:10102000F50798F0621B730B840B950B39F40A26B5
:1010300061F0232B242B252B21F408950A2609F493
:10104000A140A6958FEF811D811D089597F99F6797
:1010500080E870E060E008959FEF80EC0895002440
:101060000A941616170618060906089500240A940D
:1010700012161306140605060895092E0394000C93
:1010800011F4882352F0BB0F40F4BF2B11F460FF22
:1010900004C06F5F7F4F8F4F9F4F089557FD90584B
:1010A000440F551F59F05F3F71F04795880F97FB2C
:1010B000991F61F09F3F79F08795089512161306E6
:1010C0001406551FF2CF4695F1DF08C01616170615
:1010D0001806991FF1CF869571056105089408954A
:1010E000E894BB2766277727CB0197F908950E94DC
:1010F000020808F48FEF08950E948F080C943D08B1
:101100000E942F0838F00E94360820F0952311F035
:101110000C9426080C942C0811240C9471080E943D
:101120004E0870F3959FC1F3950F50E0551F629FD5
:10113000F001729FBB27F00DB11D639FAA27F00D30
:10114000B11DAA1F649F6627B00DA11D661F829F57
:101150002227B00DA11D621F739FB00DA11D621F3C
:10116000839FA00D611D221F749F3327A00D611D59
:10117000231F849F600D211D822F762F6A2F11243B
:101180009F5750409AF0F1F088234AF0EE0FFF1F6E
:10119000BB1F661F771F881F91505040A9F79E3FC5
:1011A000510580F00C9426080C9471085F3FE4F31D
:1011B000983ED4F3869577956795B795F795E7951B
:1011C0009F5FC1F7FE2B880F911D9695879597F924
:1011D00008950E940208880B990B0895A1E21A2E27
:1011E000AA1BBB1BFD010DC0AA1FBB1FEE1FFF1FCB
:1011F000A217B307E407F50720F0A21BB30BE40B1B
:10120000F50B661F771F881F991F1A9469F7609561
:101210007095809590959B01AC01BD01CF0108951B
:10122000EE0FFF1F0590F491E02D099481E090E00E
:0A123000F8940C941B09F894FFCF0A
:10123A00FF0000000036029F01CE017D02FF01DDA2
:10124A0001F10144697374616E63653A20006E614D
:10125A006E00696E66006F766600636D000D0A00A7
:00000001FF
